:020000041000EA
:1000000000B5324B212058609868022188439860DF
:10001000D860186158612E4B002199600221596106
:100020000121F02299502B49196001219960352056
:1000300000F044F80222904214D00621196600F024
:1000400034F8196E01211966002018661A6600F04E
:100050002CF8196E196E196E052000F02FF8012189
:100060000842F9D1002199601B49196000215960AB
:100070001A491B48016001219960EB211966A021F2
:10008000196600F012F800219960164914480160C1
:100090000121996001BC002800D000471248134993
:1000A000086003C880F30888084703B5996A0420EC
:1000B0000142FBD001200142F8D103BD02B5186610
:1000C0001866FFF7F2FF186E186E02BD00000240BE
:1000D000000000180000070000035F00212200005C
:1000E000F4000018222000A00001001008ED00E03C
:1000F00000000000000000000000000074B24E7A12
:1001000000200420F7010010C3010010C5010010F9
:10011000C1010010C1010010C1010010C101001097
:10012000C1010010C1010010C1010010C701001081
:10013000C1010010C1010010C9010010CB01001065
:10014000CD010010CD010010CD010010CD01001037
:10015000CD010010CD010010CD010010CD01001027
:10016000CD010010CD010010CD010010CD01001017
:10017000CD010010CD010010CD010010CD01001007
:10018000CD010010CD010010CD010010CD010010F7
:10019000CD010010CD010010CD010010CD010010E7
:1001A000CD010010CD010010CD010010CD010010D7
:1001B000CD010010CD010010CD010010CD010010C7
:1001C00000BE00BE00BE00BE00BE00BEEFF3058054
:1001D000103800BEF2EB8871A4290510C82905105B
:1001E0003402001090A31AE700201F49086006C8D7
:1001F00081F3088810471D48006800282FD10DA4FE
:100200000ECC002902D000F012F8F9E71849194A7B
:10021000002000E001C19142FCD1174988471749ED
:1002200088471749884700BEFDE701C901C29A42C5
:10023000FBD37047C8290510C00000202C1D0020EA
:100240003446051000000420000004203446051048
:10025000001004200010042000000000704709482E
:1002600003F0F6FD0047000008ED00E0000000D0BC
:10027000301D0020E8370020312B0010DD03001076
:10028000EF2A00105756000006005250ABB36053DF
:10029000F867041006005250861C03020868041018
:1002A000060052505422A29D1068041005005250BE
:1002B000DE65F46834460510F8B5C04610B5064C46
:1002C0002378002B07D1054B002B02D0044800E017
:1002D00000BF0123237010BD381E00200000000065
:1002E00050530410044B10B5002B03D003490448AD
:1002F00000E000BF10BDC046000000003C1E002012
:100300005053041070B504000D00012805D0002CD6
:1003100002D1074B9D4207D070BD054B9942F6D1E3
:10032000044805F0F9F8F2E7024805F005F9F3E7AB
:10033000FFFF0000AC340020F8B5CE46474680B53C
:10034000804614001D004B1E994624E064220023C1
:100350002000290003F00EFE16001F00B6197F4191
:10036000642200232000290003F004FE04000D0095
:100370000122002392197B411748821812784346C4
:1003800049465A544A1E83191B7841468B5402230E
:100390005B429C46E144002DD8D101D1632CD5D8D5
:1003A000002D02D114D1092C12D924196D4101223A
:1003B000002312196B4108498A18127843465A7073
:1003C0000C19237842461370C0BCB946B046F8BD3C
:1003D000303443461C70F7E7B0530410F0B5D646EE
:1003E0004F4680B5A7B0142000F050FD152000F056
:1003F0004DFD162000F04AFDD0231B06802252033B
:100400005A62802292035A628022D2035A62A14C1D
:10041000A149200004F032FE03210E2000F01EFD51
:1004200003210F2000F01AFD4023009340333C22AB
:10043000210012A800F0C0FC002112A800F0F8F979
:100440000024019400942723272294490CA800F04B
:10045000B9FB0194924B0093142302220CA912A819
:1004600000F0F3F912A800F0C3FC04F0DFFB002059
:100470003CF0F6F8059089460026BEE0059A4B460A
:10048000002554429D41C1E0002909D1092800D925
:10049000C2E005E0002902D1632800D9BFE001379E
:1004A0005346D91922AB20932D2220A822F02EF8F2
:1004B0002098504422002B003900FFF73DFF219A7D
:1004C000002A00D0002206230093764B002120A8AA
:1004D00022F06CF904001CAB1A9303680500083580
:1004E000AB4200D1B4E01A9383681C9363681B93FA
:1004F00025600023636023721B9A6B4B9A4200D1E4
:10050000ACE0012269491AA822F014FA040008ABF1
:100510000693036805000835AB4200D1A1E00693BD
:1005200083680893636807932560002363602372E0
:100530001A981CAB984203D01C9B591C04F0A2F9DA
:10054000209822AB984203D0229B591C04F09AF9C0
:100550000124009402230222069912A800F018F93F
:1005600012A800F045FC059A4B46514804F052FB96
:100570002500354029004F4804F04CFB7110214004
:100580004D4804F047FBB11021404C4804F042FBB9
:10059000002D6CD0D0231B06802252035A61B30772
:1005A0006BD5D0231B06802292035A6173076AD54C
:1005B000D0231B068022D2035A617D2001F044FC27
:1005C000013600203CF04CF805908946072E00DDEE
:1005D000002601230293002301930C33009312336E
:1005E00002222A2112A800F081F8069808AB98424E
:1005F00003D0089B591C04F045F94B46DB0F9A4683
:100600004B46002B00DA39E7059C4D4620002900B7
:100610000127002900D137E7002900D13AE7002956
:1006200007D000290DD0264A002303F0A3FC04378D
:10063000EFE7002903D1FA239B009842F1D2023759
:100640002EE7002902D11F4B9842ECD8033727E749
:10065000102229001CA804F0FFF847E71A4817F0F9
:1006600097FA1022290008A804F0F6F85AE7D023D8
:100670001B06802252039A6191E7D0231B06802239
:1006800092039A6192E7D0231B068022D2039A61DB
:1006900093E7C04640120020801A06007C540410E4
:1006A000FFFF000050530410FFFFFF3FEC5C0410FD
:1006B000705304108053041090530410A05304107E
:1006C000102700000F2700005853041010B50249EE
:1006D0000120FFF717FE10BDFFFF0000024B036073
:1006E0008180C2807047C04648550410F0B5DE4690
:1006F00057464E46C0B582B006000C0017009A4619
:100700000AAB1D880CAB1B78002B0DD003681B694E
:1007100099460B9B019300955346C84702B0E0BC35
:10072000BB46B246A946F0BD03681B699B460B9BBE
:1007300001930123994600935346D84733681B69B8
:100740009B467A1992B2013A92B20B9B01934B46A7
:100750000093534621003000D84733681B699946FF
:100760000B9B0193009501233A0021003000C847FC
:1007700033681B6999465444A1B2013989B20B9B75
:100780000193009501233A003000C847C6E70000F6
:10079000F0B5DE4657464E464546E0B583B0804646
:1007A0008B46160001932AE064080135002C0ED018
:1007B000E307F9D5002DF7DBF388AB42F4DD3368AE
:1007C0009F68AAB20C9B41463000B847ECE75746F9
:1007D0004346B0461E0001370136B6B2072F0BDC88
:1007E00043469B88B342F6D94B46DC5D019DBA4631
:1007F000330046469846D9E701239C46E3445B46CE
:100800001A78002A0BD01300203A5F2A00D97F23E0
:10081000203BDB00054A994691440027DEE703B000
:10082000F0BCBB46B246A946A046F0BD5C550410DC
:1008300010B582B003681C6983880191C288009258
:1008400000220021A04702B010BDF0B5DE46574699
:100850004E464546E0B593B080460F0018001C9BFD
:100860009B4643469B889A4200DB80E0029004004E
:100870004546E88884427ADA5542BE88B446B54295
:1008800075DA6642B146FE880596B1456FDA0026F4
:1008900006960792002A31DC06A909680391002117
:1008A000089102990991002C2ADC08A90968019194
:1008B00000210A910B95002D24DC0AA909680491F6
:1008C00000210C9149460D9100291DDC0CA90968F5
:1008D00000910E9362440F92934217DC0EAB1B689B
:1008E0009A461090029B059A94466344119398424D
:1008F0000EDC10AB1B6802931D9E31E007A9CCE70C
:1009000009A9D3E70BA9D9E70DA9E0E70FABE6E703
:1009100011ABEFE743461A68936899466B469A888D
:10092000A1B203004046C84701350134544511DAED
:100930003B68DB686A461288A9B238009847002EE7
:1009400005D03268D36881B20022300098475845FC
:10095000E0D1E9E7009B01330093019B0133019350
:10096000019B029A934202DA039C049DDEE713B0D6
:10097000F0BCBB46B246A946A046F0BD30B5D5088E
:1009800084896C436118C4890919072414400569D6
:100990006A560120A040824352B2581E8341A340B0
:1009A0001A436A5430BD30B50469D50883896B4356
:1009B0005B18C1895B18E05C07231A4003001341F0
:1009C0000120184030BDF0B5D6464F464646C0B56A
:1009D00082B081468C46140001930AAB1B880B9DA4
:1009E00012E00023D35601278740BB435BB22F00A0
:1009F0007E1EB74187403B43137001320139002905
:100A0000EFD10134A4B243465F1EBAB29046002B28
:100A10000FD0E3084A4692895A4362444B46DB8929
:100A2000D2184B461B699A46524407202040019930
:100A3000E5E702B0E0BCBA46B146A846F0BD10B545
:100A400003685B68984710BD024B0360024B03606C
:100A50007047C046805804106458041070B50400F4
:100A60000D4B083303604569002D11D06B68013BC5
:100A70006B60002B0CD12B689B6828009847AB68F3
:100A8000013BAB60002B03D12B68DB682800984743
:100A9000024B2360200070BD945804104855041088
:100AA0000020704710B5C068002802D0012103F073
:100AB000E9FE10BD10B50400044B0360044B036055
:100AC000102103F0DFFE200010BDC0468058041046
:100AD0006458041010B5044B0360044B03601021EC
:100AE00003F0D0FE10BDC0468058041064580410B6
:100AF00070B504000F4B083303604569002D11D019
:100B00006B68013B6B60002B0CD12B689B68280045
:100B10009847AB68013BAB60002B03D12B68DB68C7
:100B200028009847044B23601821200003F0AAFEF8
:100B3000200070BD9458041048550410F0B5C64606
:100B400000B504000D001600984606AB1F88FFF79D
:100B5000C5FD194B08332360F00873071DD001232E
:100B6000C0186843C019A0604346A381E78103F021
:100B70007DFE0600206100236361102003F072FEF9
:100B80000E4B03600123436083600D4B0360C6601E
:100B900060612369A268981804E00023E0E700225E
:100BA0001A7001339842FAD1A389002B00D1A58194
:100BB000200080BCB846F0BD94580410645804105E
:100BC00080580410F0B5CE46474680B583B0040087
:100BD000884601921E000AAB1B8899460BAB1D8804
:100BE00097B232003900FFF779FD1A4B08332360C2
:100BF000F00873072BD001228018019B584340193D
:100C0000A0604B46A381E58103F030FE0600206121
:100C100000236361102003F025FE0F4B03600123C6
:100C2000436083600D4B0360C6606061236958199F
:100C3000A3685A1B414603F00FFEA389002B00D185
:100C4000A781200003B0C0BCB946B046F0BD002269
:100C5000D2E7C04694580410645804108058041019
:100C600070B50400104B0360104B03604569002D04
:100C700011D06B68013B6B60002B0CD12B689B681B
:100C800028009847AB68013BAB60002B03D12B6871
:100C9000DB6828009847064B23602021200003F0E2
:100CA000F1FD200070BDC046B85804109C580410D7
:100CB0004855041070B504000E4B03600E4B0360E2
:100CC0004569002D11D06B68013B6B60002B0CD186
:100CD0002B689B6828009847AB68013BAB60002BF2
:100CE00003D12B68DB6828009847044B2360200061
:100CF00070BDC046B85804109C58041048550410E4
:100D000010B584B003AA002313808024147051709E
:100D1000017F80690093023304F0DCF904B010BD58
:100D200030B589B0050001AC1A220021200003F083
:100D30008DFDAE2323708E3B63702033E3706133EF
:100D40002371073363712033E3710B33237207334D
:100D5000A372D83BE372D3332373553B6373593388
:100D6000A3731833E373163B2374AB3B63745133A3
:100D7000A3747E33E3745B3B237502336375193BC5
:100D8000A375793BE3751A33237681336376EB8859
:100D90005A1EA271202B01D91222E27201AC04E08A
:100DA00021782800FFF7ACFF01341E236B449C42DE
:100DB000F6D109B030BD000070B582B004000E005D
:100DC0001500190006AB1A88012300930B00FFF7EA
:100DD000B5FE064B2360A661257740232269137078
:100DE0002000FFF79DFF200002B070BDB85804102E
:100DF00070B582B0040081884D1EADB280292BD021
:100E00008026761AB6B27F2521212000FFF778FFD1
:100E1000F1B22000FFF774FFE9B22000FFF770FF86
:100E200022212000FFF76CFF00212000FFF768FF60
:100E3000E188C9080139C9B22000FFF761FF4023EA
:100E4000226913702269A368217FA069002400949D
:100E500004F040F902B070BD0026D5E710B583005C
:100E6000084A944663441C6840226240C0241440EF
:100E70008022520113431C60C000034B9C46604417
:100E8000416010BD04C001400040014010B5012385
:100E90008340D0221206936293610521FFF7DEFFA3
:100EA00010BD0000034B1B6802201840431E9841F0
:100EB000C0B2704700C00640EFF3108072B6034B1B
:100EC0001B68002BFBD0BFF35F8F70472C0100D055
:100ED000BFF35F8F024B00221A6080F310887047C7
:100EE0002C0100D0F8B506000C001500FFF7E4FF58
:100EF000E308F718F15C07222240012393400B42DC
:100F000005D1DBB20B433B70FFF7E2FFF8BD2100D8
:100F1000280001F0B7FE0000002307E0054A9A18F8
:100F20009200BFF35F8F0021116001331F2BF5D9B1
:100F30007047C04640000034054A1078431CDBB2BD
:100F40001370172B02D9130010221A707047C04675
:100F50008C110020074B9B68103080001950BFF3A4
:100F60005F8FBFF35F8F044B0021196082F31088FD
:100F70007047C04600ED00E0240100D010B5091A0A
:100F8000081F0A4B9C466144094A914208D8C3078E
:100F900006D440104005400D064B184380B210BDEA
:100FA000054B064AA321064801F0A4FDFC070000FA
:100FB000FE0F000000E0FFFFCC580410245B04107B
:100FC000FC58041010B5091A04394C08090B08D153
:100FD0004905490D064A11430180064B23434380CE
:100FE00010BD054B054AAB21054801F083FDC04605
:100FF00000F0FFFF00F8FFFF40590410F85A0410FA
:10100000FC58041001238340034A10681840431E13
:101010009841C0B27047C04600E100E0002904D00A
:10102000034B1860034B18607047034B1860FBE7D5
:1010300080E200E000E100E080E100E010B5012383
:1010400083401800FFF7EAFF10BD0000024B9B68C9
:1010500010308000C058704700ED00E070B504000B
:101060000D00EFF3108672B60C4B1B68002BFBD003
:10107000BFF35F8F2000FFF7E9FF094B984201D0D3
:10108000A84205D1320029002000FFF763FF70BDA0
:10109000044B054A8621054801F02CFD240100D0AF
:1010A000CD01001050590410405B0410FC5804108E
:1010B000F0B5CE46474680B583B006000D00EFF38D
:1010C000108872B6564B1B68002BFBD0BFF35F8FA6
:1010D000544B9A6834001034A300D758524B9F42A7
:1010E00007D0AF4200D198E00197504BFB1A2F2B4D
:1010F00009D9424639003000FFF72CFF03B0C0BCCD
:10110000B946B046F0BD3000FFF77CFF81460021B4
:101110003000FFF793FFBFF35F8FEFF305810029E6
:1011200001D08C4211D10123019C9C430022A36871
:10113000AB4212D00622A256002A0DDB53009B18A8
:101140009B002200394CE418F1E73621384B394A2C
:10115000FF31394801F0CEFC2200AB4256D10625C2
:101160006557002D38DB6B005B199A002F4B9B18DD
:101170009A68A260DA79E27106229A56A2719B7986
:101180005BB2002B0FDA2D48A0806B005B199B002F
:10119000264AD3182A4A11789971157049463000A9
:1011A000FFF74CFFA5E7201D6B005B199B001F4A52
:1011B0009B181A1D9B88D90A1C2907D15B055B1552
:1011C000023359005118FFF7D9FEDDE71D4B1E4AC7
:1011D000B121194801F08EFC002912D1002A0ED04D
:1011E000FF239371194B9380154A1378A371184B01
:1011F0000E49641A644163431B0D1370CEE70A4F16
:10120000F2E7201D1349FFF7DDFEC7E76A21124B05
:10121000084AFF31084801F06DFC034F69E7C046FA
:10122000240100D000ED00E0CD010010901100205D
:10123000645A0410105B0410FC58041001BD000037
:10124000E63700204C5A0410305B041001BDFFFF4C
:10125000AAAA0000CA110020985A041070B50121F2
:1012600001432E4BCB1A2F2B28D8EFF30583002BED
:101270002BD0EFF3108C72B6294A1268002AFBD0EB
:10128000BFF35F8F274A0400244D641B644162430F
:10129000120D54B2244A92689B00D2588A421BD045
:1012A0000022032A32D853009B189B001B49CB18FD
:1012B0009B795BB2A3421FD00132F2E7C7211B4BDF
:1012C0001B4A49001B4801F015FC92211A4B184A91
:1012D000FF31184801F00EFC134A92681749D150AB
:1012E000174B1A7882711C70BFF35F8F0C4B002272
:1012F0001A608CF3108870BD0D0053009918890096
:101300006918FF268E710F4A8A80E9E7D1210E4BBA
:10131000074A4900074801F0EDFBC0469011002044
:10132000240100D0AAAA000000ED00E0A05A041099
:10133000DC5A0410FC580410C85A0410CD010010E7
:10134000E637002001BDFFFFD45A04100022044BF1
:1013500002E0044902C30132072AFAD97047C046A5
:1013600000E400E080808080024B9C46614489005C
:10137000016070474000003410B50400FFF7DCFD49
:1013800001002000FFF7F0FFFF232371BFF35F8F01
:1013900010BD10B50400FFF7CFFD01002000FFF7DE
:1013A000E3FFFF23237100236371BFF35F8F10BD41
:1013B00070B505000C00080000F0FAFE0949200095
:1013C00000F03AFEFFF7B8FD074B9C4660448000F2
:1013D00068602C75D0231B061B786B75A400034B2B
:1013E000E55070BDF516001040000034B035002007
:1013F0000A4B1A68EFF3108172B61368002BFCD009
:10140000BFF35F8F054B1B68BFF35F8F00221A602D
:1014100081F3108840BF002000217047C8370020AA
:1014200010B5002922D003681B7B99421ED8174BA8
:101430009C466144090183689C4661440C68496884
:10144000002A19D003681B7B9A4215D883680F487D
:101450008446624412019A18106853680200012001
:101460008B4201D80ED00020C0B210BD084B094AF3
:101470003C21094801F03EFB054B064A3C21064849
:1014800001F038FBA242EFD8EDE7C046FFFFFF0FA7
:10149000CC5C0410345F0410905C041010B500297B
:1014A0001ED0037B99421BD84B005B18033B04689A
:1014B000A4466344002919D0002A1DD0914221D0AE
:1014C000002A25D0047BA24222D80468500080184C
:1014D000033820188170197800291FD11A7010BDA7
:1014E000104B114A6821114801F004FB104B114ABE
:1014F0006F310E4801F0FEFA0F4B0E4A70210B4877
:1015000001F0F8FA0D4B0B4A7121084801F0F2FA8C
:10151000044B054A6821054801F0ECFA41701A7045
:10152000DDE7C046F05C0410A05F04100C5D041001
:101530005C5D04107C5F0410685D0410745D041031
:1015400070B506000D001400002914D0002A14D034
:10155000806873689847002806D022002900300070
:10156000FFF79CFF280007E02A0021003000FFF76A
:1015700095FF200000E0100070BD0800FCE70000AF
:10158000F0B583B00500009201930AAB1C780BAB59
:101590001F78002C26D003685A7B944207D1012380
:1015A000002B19D1002C3BD1200003B0F0BD002C42
:1015B0000CD01A7B944209D81A6863001B19033BAC
:1015C000D3189B78002BEBD00123E9E73E4B3F4A31
:1015D00068213F4801F08EFA3E4B3F4A67213F4861
:1015E00001F088FA03689C7B002CDBD012D01A7BB8
:1015F00094420FD862001219033A19688C4662446B
:1016000051789973002900D1D973002393705370D6
:101610001370C7E72C4B2D4A68212D4801F06AFA58
:10162000002C3AD02B681B7B9C4236D82C4BE318FD
:101630001B01AA6894466344009A1A60019A5A6092
:10164000089A9A60099ADA602E68002C2BD030D064
:10165000337B9C422DD863001B19033B32689446B0
:10166000634400229A705A701A70717B2200300015
:10167000FFF766FF7073844200D095E7287D009ADB
:10168000019B00F021FD061E01D0002F17D00C9BFE
:10169000002B00D188E71E7086E7124B124A3C21CE
:1016A0000E4801F027FA114B114AA521084801F014
:1016B00021FA054B054A6821054801F01BFA286804
:1016C000210000F039FFE2E7F05C0410A05F041095
:1016D0000C5D04108C5D0410AC5F0410905C041071
:1016E000FFFFFF0FCC5C0410345F04108C5C04100F
:1016F000905F0410F0B5DE4657464E464546E0B5CD
:101700008BB00990002308938200B54BD658370060
:1017100052E0B44BB44A3F21B44801F0EBF9B44B6A
:10172000B44A3C21B44801F0E5F9002901D1002870
:1017300069D10021404600F0F5FEA04219D12A6887
:101740006B6806920793AB689846EB689A464346E7
:10175000002B14D0002C18D03B681B7B9C4214D863
:10176000631EFA68D35C08931B021843386100209B
:1017700015E0A24BA24A8E219F4801F0BBF9A14B74
:101780009F4A92219C4801F0B5F9994B9E4A41210C
:10179000994801F0AFF900239A46984600207B68EB
:1017A000BFF35F8F00221A6086F310884346002B38
:1017B00032D1002800D10CE100F0FAFB02000B1E30
:1017C000A7DB00200021069007917868EFF31086D0
:1017D00072B601680029FCD0BFF35F8F3968884674
:1017E0004C7B002CD7D09AD0097B8C4297D8874964
:1017F00065182D01B9688C46654428686968801AA7
:101800009941002991DD2A686B68099800F05CFC19
:1018100000239A469846C2E7089B1B022343994639
:1018200051461800C04705000E007A68EFF3108B90
:1018300072B6136859424B41D9B2002BF9D1BFF3AC
:101840005F8F002E1EDB002E46DD3B69002B47D04C
:101850004B456DD100F0ACFB02000B1E6EDB521944
:101860007341002B70DB002B72DB002104910131EE
:101870000391029451460191414600913800FFF7CF
:101880007FFE4CE03B69002BDDD04B4514D1069A1E
:10189000079B521BB341002B14DB002B16DB0021EE
:1018A0000491013103910294514601914146009106
:1018B0003800FFF765FE32E0554B514AA1214E48F2
:1018C00001F018F901225242524BE6E7454B464AD5
:1018D0003F21464801F00EF9002E01D1002DB4D170
:1018E0003B68002C50D05A7B944237D1012100290B
:1018F0004AD1DA7B002A4DD19A7B002A03D1DA7BC8
:10190000002A5AD19C73DC73002C5CD03B681B7B93
:101910009C4258D8FA68013C135D013313550023EB
:101920003B617A68BFF35F8F13608BF3108843E7E6
:10193000374B334AA421304801F0DCF8294B2A4ABE
:101940003F212A4801F0D6F801225242314B8AE762
:10195000244B254A3F21254801F0CCF8002C0DD01E
:101960001A7B94420AD862001219033A1868844616
:1019700062449278002ABAD00121B8E7264B274A60
:101980006821274801F0B6F8264B274AF62124485B
:1019900001F0B0F8002A0AD0197B8A4207D851001A
:1019A0008A18033A19688C4662445470A4E71A4BAB
:1019B0001A4A68211A4801F09DF81C4B1A4AFB216B
:1019C000174801F097F80A4B0F4A41210A4801F0E5
:1019D00091F80BB0F0BCBB46B246A946A046F0BD9C
:1019E000B0350020B85B0410005F0410D45B041015
:1019F000CC5C0410345F0410905C0410B45D0410DF
:101A0000185F0410CC5D0410585F0410FFFFFF0F37
:101A1000D85D0410FFFFFF7FF05C0410A05F04108E
:101A20000C5D0410145E04106C5F0410385E04102A
:101A300010B50C4B5B68002B04D00A210A48FFF755
:101A400093FC10BD074C2300084A1021206800F0C9
:101A500079FC032000F0A0FA03212000FFF7A8FC86
:101A6000EBE7C046D8110020C83700202114001031
:101A700010B5064B5B68002B01D0044810BD044B29
:101A8000044A5E21044801F035F8C046D811002010
:101A90004C5E0410405F0410905C0410F0B5DE460C
:101AA00057464E464546E0B58BB0804616001F00AF
:101AB000149B9A46159B994616AB1B789B461F2391
:101AC00002AA9446634400221A702BE0002809D031
:101AD00042461268127B904204D8421E4146C968B1
:101AE0008A5C41E0404B414A4121414801F002F803
:101AF00007984CE0361BAF41002F07DB002F11DAAF
:101B00003C4B3D4A3F213D4800F0F4FF0126764220
:101B10003B4FF3E7374B384A3F21384800F0EAFFA4
:101B2000002F4FDB43465A68EFF3108472B61368F8
:101B300059424B41D9B20791002BF8D1BFF35F8FC7
:101B40001F3302AA94466344049300230393029331
:101B50004B4601935346009332003B004046FFF74B
:101B60000FFD031EB2D1020041464968BFF35F8FEB
:101B700000250D6084F31088002B29D01F2302A9B3
:101B80008C4663441B78002BB2D112021043002B09
:101B900020D05B46002B1DD04946D04704000D00E5
:101BA00003000B431DD00029A4DB00F001FA06005E
:101BB0000F1EAFDB36196F41002FB1DA01267642D6
:101BC0000F4FADE70B4B0C4A3F210C4800F092FF42
:101BD000012040420BB0F0BCBB46B246A946A0462D
:101BE000F0BD0798F6E7C046CC5C0410585F0410BF
:101BF000905C0410B85B0410005F0410D45B041008
:101C0000FFFFFF7FF8B504004268EFF3108572B65E
:101C1000136858424341D8B2002BF9D1BFF35F8F0C
:101C2000CBB22268567BB3421BD10120002848D09A
:101C3000206988422BD0090AC9B2002B2ED0206817
:101C4000007B83422AD8581EE668305C88422BD03D
:101C500000206368BFF35F8F00221A6085F310884D
:101C6000F8BD002B0DD0167BB3420AD85E00F618E3
:101C7000033E1768BC466644B678002ED6D00120D5
:101C8000D4E7134B134A6821134800F033FF952122
:101C9000124B134A4900134800F02CFF124B134A11
:101CA0004121104800F026FF1900100000F044FC0C
:101CB0000028CED132210E4B094AFF31094800F0ED
:101CC00019FF23698B42C4D100232361C1E7C046B9
:101CD000F05C0410A05F04100C5D0410705E041032
:101CE000E85E0410905C0410CC5C0410585F041093
:101CF000945E0410F0B587B006000F00EFF3058383
:101D0000002B1FD106246442E517A4197D418D42A2
:101D100002D803D1844201D900240025002D14DB10
:101D20000494059500F044F902000B1E13DBA41A7D
:101D30009D41002D17DC14D03000390000F044F92B
:101D400007B0F0BD234800F09DFF234B234A3F21FD
:101D5000234800F0CFFE204B204A3F21204800F0CE
:101D6000C9FE002CE8D0FFF783FE00230293019305
:101D70001C4B0093049A059BFFF790FE002818DA8D
:101D8000DAE7002300E00023002BD5D1164B1A68B8
:101D9000EFF3108172B61368002BFCD0BFF35F8F96
:101DA000114B1B68BFF35F8F00221A6081F310880C
:101DB00020BF0499059A0D4B5B6A9A42E3D80B4801
:101DC000806A884203D29A42DBD00123DCE70123F8
:101DD000DAE7C046985E0410B85B0410005F041098
:101DE000D45B0410F1130010C837002000400540F8
:101DF00070B504000D0000F0DBF802000B1E0ADBDA
:101E0000200029008018594100290ADB00290CDB39
:101E1000FFF770FF70BD084B084A3F21084800F0EB
:101E200069FE012040420749F0E7034B034A3F2186
:101E3000034800F05FFEC046B85B0410005F04106A
:101E4000D45B0410FFFFFF7F10B5FA22920000233D
:101E5000002102F023FCFFF7CBFF10BD70B584B06A
:101E600005000C00EFF30583002B1ED1FFF700FEE9
:101E7000002302930193224B00932A002300FFF7D3
:101E80000DFE061E23DD20BFFFF7F2FD3100FFF738
:101E9000B9FE1C4B5B6A9C422DD81A4A926AAA4230
:101EA0002CD29C4225D0012026E0164B5B6A994239
:101EB00009D8144A926A824207D2994201D001207D
:101EC0001AE0002018E0002016E0012014E00D4B7D
:101ED0005B6A9C4209D80B4A926AAA4207D29C428A
:101EE00001D0012008E0002006E0002004E00120ED
:101EF00002E0002000E0002004B070BD0120FBE7FC
:101F0000F11300100040054070B5EFF30580103864
:101F1000EFF3108C72B61A4B1B68002BFBD0BFF38B
:101F20005F8F01221300834016494B6316490B60F3
:101F3000164909780C00C440224214D0114A546A50
:101F40008200134D5259944206D38200114C12590B
:101F500099430E4B197007E00A4A031D9B009958DC
:101F60009950002200E00022BFF35F8F044B002154
:101F700019608CF31088002A00D0904770BDC046CD
:101F8000280100D0004005403C700540E7370020A4
:101F9000CC3700201C35002010B50100024A034850
:101FA000FEF7A0FF10BDC046D05F0410E53700204B
:101FB000044B5B6A034A906A1900536A9942F9D14B
:101FC0007047C04600400540084B5B6A01E0074B84
:101FD0005B6A8B42FBD301E0044B5B6A8B4203D10B
:101FE000024B9B6A8342F7D37047C04600400540CE
:101FF00070B504000D00FFF7DBFF02000B002000AE
:102000002900801859418B4202D804D1824202D95A
:1020100001204042C117002902DBFFF7D5FF70BD48
:10202000024B034A3F21034800F064FDB85B0410F3
:102030007C600410D45B041070B504000D00EFF355
:10204000108672B61B4B1B68002BFBD0BFF35F8F53
:10205000002D1CD02000FEF7F9FF174B83420BD058
:1020600019002000FEF7FAFF01212000FEF7E6FF2D
:102070000123A340114A1360A400114BE550BFF3A4
:102080005F8F0C4B00221A6086F3108870BDA2008F
:102090000B4B0021D1500122A2400A490B789343F7
:1020A0000B7005492000FFF703F800212000FEF720
:1020B000C5FFE4E7280100D0091F00103860054083
:1020C0001C350020E7370020F0B5DE4600B584B0AF
:1020D0000400150001921E000293FFF769FF0395AB
:1020E0008E4202D84ED185424CD9EFF3108B72B696
:1020F000274B1B68002BFBD0BFF35F8F254A177857
:102100000125A540EBB23B431370234B5D63221DB9
:1021100092000199D150A2002049029850501B6AA8
:102120002B4212D11C4B1B6C2B4208D00020BFF35A
:102130005F8F174B00221A608BF3108823E0184B37
:10214000184AC521184800F0D5FCFFF731FF8E4230
:1021500014D802D1039B834210D80E4B1B78BB428C
:102160000ED00D4B1D625D631F2004400123A34070
:102170000E4A1360074B1F701E38D8E70020D6E7C1
:102180000120D4E7012004B080BCBB46F0BDC046AE
:10219000280100D0E737002000400540CC37002060
:1021A000F45F0410606004101860041080E200E026
:1021B000EFF3108C72B60B4B1B68002BFBD0BFF3F8
:1021C0005F8F01238340084A136208490A789A43C3
:1021D0000A70BFF35F8F034B00221A608CF31088E4
:1021E0007047C046280100D000400540E737002076
:1021F00010B500291ED0037B99421BD84B005B18F9
:10220000033B0468A4466344002919D0002A1DD06A
:10221000914221D0002A25D0047BA24222D8046812
:1022200050008018033820188170197800291FD1B8
:102230001A7010BD104B114A6821114800F05AFC69
:10224000104B114A6F310E4800F054FC0F4B0E4AF0
:1022500070210B4800F04EFC0D4B0B4A71210848D1
:1022600000F048FC044B054A6821054800F042FC98
:1022700041701A70DDE7C046F05C041088610410FC
:102280000C5D04105C5D041074610410685D041042
:10229000745D041070B506000D001400002914D000
:1022A000002A14D0806873689847002806D022005E
:1022B00029003000FFF79CFF280007E02A002100DA
:1022C0003000FFF795FF200000E0100070BD08000F
:1022D000FCE7000010B50023437301338373037BD5
:1022E000C3730123027B9A4214D9002B0CD0027BCA
:1022F000934209D85A00D218033A01688C466244C6
:102300000133DBB25370EDE70B4B0C4A68210C48EC
:1023100000F0F0FB002A09D0924207D80168530070
:102320009A18033A8A180023537010BD024B034ACF
:102330006821034800F0DEFBF05C041088610410A3
:102340000C5D041010B5017342608360FFF7C2FF9B
:1023500010BD000070B50400081E00D170BD00293A
:1023600034D0237B994231D84B005B18033B226861
:10237000944663445A78002AF0D02DD0237B9A42A9
:102380002AD853009B18033B21688C4663445D7830
:1023900000215970002825D0237B984222D8430081
:1023A0001B18033B21688C466344002159700100CF
:1023B0002000FFF76FFF060029002000FFF7CAFF8B
:1023C000020031002000FFF765FFC7E7084B094A0C
:1023D0006821094800F08EFB054B064A6821064833
:1023E00000F088FB024B034A6821034800F082FB9F
:1023F000F05C0410886104100C5D041070B50500D9
:102400000C00160000292FD034D0037B994231D81C
:102410004B005B18033B0268944663445A78002AD9
:102420002ED19A78002A31D11978FFF793FF030053
:10243000002E0AD0EA7B002A2ED1AA7B002A03D1E3
:10244000EA7B002A3BD1AC73EC73002B3DD1002C0E
:102450004FD02B7B9C424CD82B6861000C19033C5D
:102460001C190023637070BD254B264A382126486D
:1024700000F040FB254B264A6821264800F03AFB35
:10248000254B204A3A21204800F034FB234B1D4ABB
:102490003B211D4800F02EFB002A0AD0297B8A42EE
:1024A00007D851008A18033A29688C466244547050
:1024B000C3E7164B164A6821164800F01BFB184B61
:1024C000104A4221104800F015FB002B0BD02A7B4C
:1024D000934208D843001B18033B2A689446634480
:1024E00000229A70B3E7094B094A6821094800F0B5
:1024F00001FB064B064A6821064800F0FBFAC0467D
:1025000094600410606104109C600410F05C04107E
:10251000886104100C5D0410DC6004100461041078
:10252000385E041070B504000A00457B2900FFF7EF
:1025300065FF6073280070BD70B50400002967D086
:10254000437B8B420ED0002911D0037B99420ED8D9
:102550004B005B18033B0268D0188378002B0CD12A
:10256000002056E00121FFF7DDFF012051E0294B5B
:10257000294A6821294800F0BDFA002B20D0227B8F
:1025800093421DD85A00D318033B2268D2182568FD
:10259000EB5C8B421AD0002B1BD0227B934218D8C5
:1025A0005A00D318033B2268D21853788B4216D0B6
:1025B000002BF0D11A4B1B4A6B211B4800F09AFAF2
:1025C000144B154A6821154800F094FA43781370AB
:1025D00007E0104B104A6821104800F08BFA43784E
:1025E000537000238370437001222000FFF706FF21
:1025F0000200617B814205D02000FFF74BFE607333
:10260000012006E0094B074A7121074800F072FAE1
:10261000002070BDF05C0410886104100C5D041093
:10262000D45A0410486104109C60041028610410FE
:1026300070B504000D00062000F07EF9C0002900EE
:1026400001F05AFCC60908D00E4B9E4217D87F23D2
:10265000184001303500460800E001256562A66299
:102660002C3480208001044300232360062000F0E6
:1026700063F98000A901891901F03EFC70BD0026B4
:10268000014DEBE7FEFF0000FFFF0000002909D02D
:102690000A22064B9C466044434258414000044B8A
:1026A000C252704780225200F3E7C0460080FCBF50
:1026B000DC37002070B505000C00062000F03CF966
:1026C000002829D0164B9D4227D08022D203154BDB
:1026D0001A60154B1A60154B9B6811009943FAD18B
:1026E00000212800FFF7D2FF21002800FFF7A0FFFC
:1026F0002C002C34E96A60224A406E21114080226D
:102700005201224311600A4B2B6380239B01234318
:1027100010221A600323AB6470BD80221204D6E736
:102720000080034000E0004000F0004000C0004096
:1027300001030000F8B5DE4657464E464546E0B573
:1027400005000F0092460A9A93424ED31A0E914604
:102750001E020A9A00233000494601F00BFC804615
:102760006C006419A4002F4B9C4664446368834248
:1027700000D260602B1FDBB29B46012B3BD9C023EC
:102780009B012343802212011A60AB00264A99580C
:10279000002905D0506901F0AFFB01300138FDD1AF
:1027A00053465A0123685A40E0231A4080235B01B4
:1027B00023431A605A46012A28D980239B012343C8
:1027C000802212011A6043466360424600233000B3
:1027D000494601F0CFFBAD00134B58510120F0BC2E
:1027E000BB46B246A946A046F8BD104B104A2D2163
:1027F000104800F07FF9012FC1D1C0239B01234372
:1028000003221A60A368DB07FCD5C9E72168794079
:1028100003220A401A60A2680123BB401342FAD087
:10282000CBE7C0460080004034350020946104109E
:10283000F0610410A861041030B583B00C2000F0E2
:1028400017F9FEF72FFB00280DD0002304E09900B4
:102850002D4A2E4888500133092BF8D92A4B2C4A8F
:102860005A6203B030BD2B4B00229A6700F008F982
:10287000294B01221A60274B5B6C012BFBD1274BA4
:1028800003221A60234B9B6B012BFBD10133009376
:102890000433234A0121234800F054F80523009310
:1028A000214A0121214800F04DF8214B00930022DC
:1028B00002210420FFF73EFF1E4D00952B00002251
:1028C00001210520FFF736FF104C00942300002261
:1028D00000210720FFF72EFF009423000022002193
:1028E0000820FFF727FF0A4B009323000022002156
:1028F0000920FFF71FFF00952B0000220021062072
:10290000FFF718FFADE7C04634350020006CDC024D
:102910001BB70000008000403CB0004030B00040D9
:10292000002F685900800240008C864700C002409A
:10293000001BB700405973078000014BC058704717
:1029400034350020F0B5C64600B504000D00170070
:1029500098460C2001F0D0FA0600394BFA18394B92
:102960009A4241D843011B1A9901C91AC900091892
:102970008901380001F0C0FA0200103A98235B0088
:102980009A4237D84346013B062B39D8069B013B78
:10299000062B35D83F09B74238D343461E04069B61
:1029A0001A0316432368002B36DB274B9C4244D086
:1029B00080225201254B1A60254B1A60254B9B68DB
:1029C00011009943FAD12560A060231DC022920115
:1029D0001A43212313602368002BFCDAE6600823E6
:1029E000136080BCB846F0BD1B4B1C4A11211C482B
:1029F00000F080F81B4B194A1921194800F07AF8A9
:102A0000194B164A1C21164800F074F8174B134A4C
:102A10002321134800F06EF822683F231340AB4295
:102A2000C3D1A3681B051B0D8342BED1E368EE2210
:102A3000D2021340B342B8D1D3E780229201B9E762
:102A400080E84BD380F8A93200C0024000E000408B
:102A500000F0004000C00040006204102863041031
:102A600060620410A4620410C06204100C630410BD
:102A700080239B000343014AD362704700800540D6
:102A8000064BAA2212011A602F22DA60044B054A73
:102A90001A60024B5B68002BFBDA70470040024073
:102AA0000060024000B0FA0000BEFDE703000A4AE1
:102AB0001268002A08D0084A1068C318074A9A42C8
:102AC00006D3054A13607047034A05491160F2E7CF
:102AD00001204042F7E7C046A8350020000004204E
:102AE000E83700200020704701204042704710B5B1
:102AF000FFF7DAFF10B582B00C001900002A0CD0E5
:102B0000084B002A0BD001920093230002000648D4
:102B100002F080F80120FFF7C7FF044BF1E7034AFA
:102B2000F1E7C0463463041044630410389604107F
:102B300070B52B4B2B4A1A602B4B2C4A1A602C4B2E
:102B40009A682A4B9343FAD12A4C01E008CC984763
:102B5000294B9C42FAD3FFF76FFE234B274A1A609A
:102B6000234B9B68DB43DB01FAD1254B40229A675C
:102B70005A671A67DA66234C09E0234B234A8621F9
:102B80002348FFF7B7FF2000FEF7F6FB0834214B80
:102B90009C4209D22368002BF5D0012BEDD12000F7
:102BA000FEF7F7FB0834F2E71B4CA1681B4DC0226F
:102BB000280001F051FEA560EFF30583002B00D043
:102BC00000BEFEF7A9F9FEF7C1FBFEF731FF144C7A
:102BD00001E008CC9847134B9C42FAD370BDC04625
:102BE00000E00040BFCDFBFE00F00040FE7F3C0057
:102BF00000C00040F81C0020081D0020FFFFFF015E
:102C000000F00140F01C0020746304100464041000
:102C100094630410F81C002000ED00E00000002088
:102C2000081D00202C1D0020D0B5041E18D0FFF771
:102C3000BFF906000F1E15DB0D4908684968361AF2
:102C40008F410C4A00233000390001F07BF92060ED
:102C50006160084A00233000390001F073F9A26076
:102C60000020D0BD044B054A3F210548FFF742FF35
:102C7000301E002040420F00B85B0410EC630410CB
:102C8000D45B04100FB400B583B0084801F092FF84
:102C9000049B002B07D005A90191180001F09AFFB1
:102CA000034801F087FF0120FFF7FEFEDC630410FC
:102CB0001CA204109A4200D288547047704710B585
:102CC000002802D00B684968984710BD0100002019
:102CD00007E083001B185B00501C08601078C018C8
:102CE00030380A681378303BDBB2092BF1D97047D2
:102CF000F0B5DE4657464E464546E0B583B09346AE
:102D00001F000C9B9A460D9C0E9B99460F9B9B07A0
:102D100003D0B8460F00060022E00192A346884681
:102D20004E46B9460700B44207D2551C4B464146B1
:102D30002020B84701342A00F5E73D004F465C46A5
:102D4000019B9B46B1464646B84637002E0007E039
:102D5000013C551C5346185D43463900B0472A00D4
:102D6000002CF5D135003E0047460F9B9B0707D44A
:102D7000100003B0F0BCBB46B246A946A046F0BD69
:102D8000B0464E46B9462F005D46531BB342EFD2C4
:102D9000541C4B4641462020B8472200F5E7F0B5C9
:102DA000CE46474680B585B0944698460C9D0D9C0E
:102DB0000EAB1B789946109A119B129EB7071CD434
:102DC000002B0CD0F7070AD54F46002F02D10C3745
:102DD000374204D0013B02E030272F5501349442A2
:102DE00001D21F2CF8D9F70707D59C4205D21F2C1A
:102DF00003D830272F550134F5E7F70615D57705A9
:102E000005D4002C03D0944224D09C4222D00F9AA7
:102E1000102A2BD00F9A102A30D00F9A022A35D0C0
:102E20001F2C02D830222A5501341F2C05D84A46BF
:102E3000002A31D02D222A550134039602930194A1
:102E4000009543466246FFF753FF05B0C0BCB94644
:102E5000B046F0BD621E012C06D00F9F102F01D08E
:102E60001400D4E7023CD2E71400D0E7B206D1D474
:102E70001F2CCFD878222A550134D1E7B206CCD501
:102E80001F2CCAD858222A550134C9E71F2CC7D88D
:102E900060322A550134C3E7720703D52B222A5525
:102EA0000134CAE73207C8D520222A550134C4E7C5
:102EB000F0B5DE4657464E464546E0B593B08146EE
:102EC0008A46089209931CAB10CB1B789B461E9D2B
:102ED000219B9846002C03D1102342469A439046EA
:102EE0008023DB0046461E4042461A4212D0002C88
:102EF00022D000260EE03033D9B2771C0AAB9955A8
:102F00002900200000F0F8FFAC4216D31F2F14D880
:102F10003E0004002900200000F0EEFFCBB2092B98
:102F2000E9D94246920605D54121C918C9B20A39E4
:102F3000C9B2E2E76121F8E7270043460693209BE8
:102F400005931F9B049303955B46029301970AAB7D
:102F50000093099B089A51464846FFF720FF13B09B
:102F6000F0BCBB46B246A946A046F0BDF0B5DE4671
:102F700057464E464546E0B595B0089009910A92ED
:102F80000B931E9E1F9C20AB1B789B46229B994651
:102F9000239D269B9A463300234303D11033524688
:102FA0009A4392468023DB0057461F4052461A42FE
:102FB00019D0330023432DD0002714E03033DAB288
:102FC0007B1C98460CABDA554A462B00300021009A
:102FD00000F0D0FFA5421FD819D043461F2B1BD8A5
:102FE000474606000C004A462B003000210000F046
:102FF000C1FFD3B2092BE1D95246920605D5412231
:10300000D218D2B20A3AD2B2DAE76122F8E7B14571
:10301000E3D901E00023984653460693259B059388
:10302000249B04934B4603935B46029343460193D0
:103030000CAB00930B9B0A9A09990898FFF7AFFE17
:1030400015B0F0BCBB46B246A946A046F0BD000094
:10305000F0B5DE4657464E464546E0B591B083464C
:103060008A460C9298461A9C08941B9D099522004A
:103070002B002000290001F000FA002800D0E5E034
:1030800001225242D74B2000290001F0F1F900281B
:1030900000D0DBE001225242D34B2000290001F096
:1030A000D1F9002800D0D1E000220023089E300092
:1030B000099D290001F0C6F9002800D0DDE008983C
:1030C0000999069007918023DB001E9A1A400D9201
:1030D0001E9A1A4201D106231C93069807990400F0
:1030E0000D000A000600024300D1D1E0080D4005A2
:1030F000400DBE4CA44660440A03120BBC4B134364
:103100001F0001F0CDF9BB4ABB4B01F054F9BB4A9B
:10311000BB4B01F031F904000D000022B94B300027
:10312000390001F024F9B84AB84B01F044F9020023
:103130000B002000290001F01FF901F0C9F98146B8
:1031400001F0AEF904000D00B14AB24B01F033F9C1
:103150000022B14B01F010F901F0BAF90600AF4AB4
:10316000AF4B2000290001F026F904000D003000CB
:1031700001F096F9AB4AAC4B01F01DF902000B00CF
:103180002000290001F0F3F804000D0002000B00FC
:1031900001F011F90A900B91A44BF31800261F05BA
:1031A00022002B002000290001F0E6F80E900F917C
:1031B00022002B0000208021C90501F0D8F804006E
:1031C0000D0000229A4B0A980B9901F0DAF80022C0
:1031D000984B01F0D1F802000B000A980B9901F00E
:1031E000D0F80022944B01F0C7F802000B000A98B7
:1031F0000B9901F0C6F802000B002000290001F035
:10320000BBF802000B000E980F9901F0BAF80022EB
:10321000774B01F0B1F832003B0001F0CCF806002A
:103220000F0004000D00069A079B01F021F9002809
:1032300030D001235B429C46E14400227D4B3000AC
:10324000390001F09EF804000D0023E01E9B04935A
:103250001D9B03931C9B0293089A099B0092019368
:1032600043460C9A5146584600F0FCF811B0F0BCA9
:10327000BB46B246A946A046F0BD002300240693F3
:103280000794069680231B069C46654407951AE71B
:10329000002399464B466333C62B1ED804261E9B3B
:1032A0001B0526D52B0023430FD0644A644B069898
:1032B000079901F0D5F8002879D00022614B0698D3
:1032C000079901F0BFF8002871D01C9B4B4506DD23
:1032D0004A46981A431E1C9303E00526DFE70023A5
:1032E0001C938023DB001E9A1A431E9200260023A3
:1032F00099461D9B9E4264D29F1B02231E9A1A4030
:103300000A921E9A134202D0002E00D000274B468C
:10331000002B07D022002B000698079901F031F806
:1033200006900791002200230898099901F08AF875
:10333000002848D1444B1E9A1340049303971C9BCA
:103340000293069B079C0093019443460C9A5146B6
:10335000584600F087F8002E00D187E71E9B9B0699
:103360003DD54525441C4346020051462800D84718
:103370004B46DA179B18534005220592013E0496EE
:10338000002203920A3202924A46D00F0190009323
:103390004346220051465846FFF78AFD0A9B002B00
:1033A00000D163E702005F460C9E1D9D54E01C9B0C
:1033B000002B9ED00D9B002B9BD01C9B013B1C9394
:1033C00097E7002799E7069C079D220029008020A7
:1033D0000006844661440B0006920793AAE7652520
:1033E000C0E7C046FFFFEF7FFFFFEFFF01FCFFFFDD
:1033F0000000F03FFB799F501344D33FB3C8608B6C
:10340000288AC63F0000F83F61436F63A787D23F19
:1034100071A379094F930A400000E03F1655B5BBF0
:10342000B16B0240EF39FAFE422EE63FFF03000087
:1034300000002C4000002440000018402D431CEBED
:10344000E2361A3F80842E41FFF7FFFF541C4346AB
:1034500051462020B8472200931BAB42F6D3100000
:1034600004E7C046F0B5DE4657464E464546E0B551
:1034700095B00690079193469946209F1E9A1F9BF0
:103480001000190000F0F9FF002831D1012252424A
:10349000BF4B1E981F9900F0D5FF002837D101229D
:1034A0005242BC4B1E981F9900F0E2FF00283DD10C
:1034B0000022B94B1E981F9900F0DAFF002850D166
:1034C0000022B64B1E981F9900F0BCFF002848D17F
:1034D000002200231E981F9900F0B4FF002850D14D
:1034E00000239846229B5B0500D4B6E0002458E0F8
:1034F000229B0393219B029303230193A84B0093E8
:103500004B465A4607990698FFF7F2FB0EE1229BBD
:103510000393219B029304230193A24B00934B46F8
:103520005A4607990698FFF7E3FBFFE00423229A27
:103530001A4022990B4210D09B4B002A0FD0042234
:103540002299039121990291019200934B465A4688
:1035500007990698FFF7CCFBE8E0944BEDE70322D0
:10356000EEE7229B0493219B039302971E9B1F9CD3
:10357000009301944B465A4607990698FFF768FD59
:10358000D4E01E9A1F9B0020002100F0F0FE1E9048
:103590001F9101239846A5E70CAB30221A55013F35
:1035A00001341F2C01D8092FF6D81E981F9900F05E
:1035B0008FFF050000F074FF02000B001E981F999A
:1035C00000F0D5FEFA007A4B9B181A685B680A92E5
:1035D0000B9300F0F0FE0890099100F09DFF0600AB
:1035E00000F05AFF02000B000898099900F0BFFE96
:1035F0000890099100226F4B00F03AFF00282ED06E
:103600000136300000F048FF02000B000A980B99C9
:1036100000F01EFF002801D001350026002F2CD11C
:10362000280000F03DFF02000B001E981F9900F0DB
:103630009EFE06000F0000225E4B00F003FF0028F4
:1036400046D100225B4B3000390000F011FF00280A
:103650003ED1EB073CD501353AE0062746E700228C
:10366000544B0898099900F0EDFE0028D6D1002EA1
:1036700001D0F307D2D50136D0E7AA461F2C11D8C6
:10368000013F0A21300000F037FC651C30310CABE3
:1036900019550A21300000F02FFC092E0ED9060022
:1036A0002C00EBE755461F2C0CD87B1E002F09D0B1
:1036B0000CAA302111551F000134F4E72B005546A8
:1036C0001C00F0E71F2C03D80CAB2E221A55013436
:1036D0001F2C10D80A21280000F0E6FB661C3031B0
:1036E0000CAB19550A21280000F0DEFB051E01D0A5
:1036F0003400EDE734000323229A1340012B1CD041
:103700001F2C06D84346002B32D00CAB2D221A5565
:103710000134229B0393219B029301940CAB0093F1
:103720004B465A4607990698FFF7E2FA15B0F0BCE7
:10373000BB46B246A946A046F0BD219B002B13D044
:103740004346002B02D10C3313420FD0219B013B87
:103750002193190003E00CAB30221A5501348C423E
:10376000CED21F2CF7D9CBE72199F8E72199F6E7BC
:10377000229B5B0704D50CAB2B221A550134C8E7FA
:10378000229B1B07C5D50CAB20221A550134C0E77C
:10379000FFFFEFFFFFFFEF7F65CDCD4165CDCDC1D1
:1037A00020640410246404101864041014640410C9
:1037B000106604100000E03FF0B5DE4657464E4666
:1037C0004546E0B593B082468B469046119300295A
:1037D00000D1EBE200275546119B1878002800D154
:1037E000E7E2252809D07C1C43463A005946A84701
:1037F000119B013311932700EEE70133119300244D
:10380000119A11780B00203BD8B2102803D88300FE
:10381000D048C3589F460B00303BDBB2092B2CD954
:103820002A292FD000230A93119B1A782E2A39D0E7
:1038300000239A46119A1378683BD9B2122976D898
:103840008B00C549CB589F4601231C43013211927E
:10385000D6E702231C4301321192D1E704231C4313
:1038600001321192CCE708231C4301321192C7E7C1
:1038700010231C4301321192C2E711A8FFF726FA68
:103880000A90D1E71C9B1A1D1C921868002804DBC3
:103890000A90119B01331193C6E702231C43434254
:1038A0000A93F6E78022D20014435A1C11925A78E8
:1038B0001300303BDBB2092B04D92A2A07D000239E
:1038C0009A46B7E711A8FFF701FA8246B2E71C9BB8
:1038D0001A1D1C921868002804DB8246119B0133D4
:1038E0001193A7E70020F8E780235B002343511CD6
:1038F000119152786C2A01D01C0018E0C0239B0063
:103900001C430131119112E080232343511C11917A
:103910005278682A01D01C0009E0C0231C43013101
:10392000119104E080235B001C4301321192119B32
:1039300018780300253BDAB2532A00D92CE2930011
:10394000864AD3589F4680239B001C430132119224
:10395000EDE780235B001C4301321192E7E77828F2
:1039600009D0582838D06F2838D0622838D0102392
:103970009C430A2600E01026582833D0692803D03B
:10398000642801D00C229443630501D5012294439D
:1039900069282AD0642828D0A30500D59FE0E30534
:1039A00000D5B8E0630600D4CAE01C9A111D1C9132
:1039B0001168FF220A4005940A9B0493534603931F
:1039C000029600230193009243463A00594628008C
:1039D000FFF76EFA070027E01026CDE70826CBE7B1
:1039E0000226C9E720221443C8E7A30520D4E30533
:1039F00050D4630666D51C9A111D1C911168FF22D4
:103A00000A40D317D118594005940A9B0493534692
:103A100003930296D20F0192009143463A00594611
:103A20002800FFF745FA0700119B01331193D3E6F5
:103A30001C9BDA1D07218A43110008311C91116873
:103A400053689C46DB170C930D930C9A0D9B10004A
:103A500048400E90624653400F930E980F990C9A6F
:103A60000D9B801A99410E900F9108940A9B079321
:103A7000534606930496002305936346DA0F029299
:103A80000090019143463A0059462800FFF76EFA2C
:103A90000700C9E71C9A111D1C911268D317D11891
:103AA000594005940A9B0493534603930296D20F00
:103AB0000192009143463A0059462800FFF7F8F971
:103AC0000700B1E7230605D51C9A111D1C910023A0
:103AD000D25E96E71C9A111D1C91126891E71C9BFF
:103AE000DA1D07218A43110008311C9108940A9BB2
:103AF0000793534606930496002305930293136895
:103B000054680093019443463A0059462800FFF751
:103B10002DFA070088E71C9A111D1C9105940A9B39
:103B20000493534603930296002301931368009372
:103B300043463A0059462800FFF7BAF9070073E7F1
:103B400023060DD51C9A111D1C9112681204120C2B
:103B500031E7C0462C64041070640410BC64041087
:103B60001C9A111D1C91126825E746281AD01C9B2F
:103B70000733072293431A0008321C9204940A9ACE
:103B80000392524602925C681B680093019443467C
:103B90003A0059462800FFF765FC0700119B0133E6
:103BA000119319E620231C43E1E7672801D0472839
:103BB00002D180231B011C43452801D0472801D195
:103BC00020231C431C9B0733072293431A0008320F
:103BD0001C9204940A9A0392524602925C681B68F3
:103BE0000093019443463A0059462800FFF730FA03
:103BF0000700119B01331193EEE502231A002240C6
:103C0000924623421FD001241C9B1A1D1C927A1C31
:103C10009146187843463A005946A8475346002B28
:103C200016D1119B013311934F46D5E5561C4346DF
:103C300059462020B847230032005C1C9D42F5D82D
:103C40003D001700E0E701233A002F000A9DF4E74A
:103C50004A46A9460A9D06E0571C4346594620207D
:103C6000C84734003A00661CA542F5D84D46914637
:103C7000D7E71C9B1A1D1C921B6899465346002BC4
:103C800000D1013B4E4601E0013613003278002A94
:103C900002D05A1E002BF7D14B46F21A1092802305
:103CA000DB0026001E401C4203D0524501D953467A
:103CB000109302231A0022400B92234205D03A00AF
:103CC00037004C46A946554620E03A00109B5F4617
:103CD000B3462E0006E0551C434639002020B0476D
:103CE00023002A005C1C0A999942F4D835005E46EC
:103CF000BB46109437004C46A946554606E01D00C9
:103D00000134561C43465946C847320020780028E3
:103D100004D0002FF4D06B1E002DF0D117004D46BB
:103D20000B9B002B03D1119B0133119354E50A9F88
:103D3000109B06E0561C434659462020A847230006
:103D400032005C1C9F42F5D81700ECE721231C438E
:103D50001C9B1A1D1C921B68009305940823049356
:103D600053460393102302930023019343463A00E2
:103D700059462800FFF79CF80700119B0133119367
:103D80002AE57C1C43463A0059462520A847119B4A
:103D90000133119327001FE57C1C43463A00594626
:103DA000A847119B01331193270015E50A4B9A464A
:103DB00010E5AA46474502D343465A1E00E03A00A2
:103DC000434659460020D047380013B0F0BCBB46EC
:103DD000B246A946A046F0BDBD2C00100EB410B5E9
:103DE00085B0010007AC08CC039401220094524234
:103DF0000348FFF7E1FC05B010BC08BC03B018474E
:103E0000B52C001000B583B0009313000A00010028
:103E10000248FFF7D1FC03B000BDC046B52C00102E
:103E200000B585B0029003910121009313004A422E
:103E300002A90248FFF7C0FC05B000BDBF2C00106E
:103E400001480421014B184700120020713E001068
:103E500010B5010018231B8814221088984710BD44
:103E600010B5010018231B8816221088984710BD32
:103E7000F0B5C64600B507000E00002501239846A0
:103E800000E00135B5420AD2AC003C192068FFF7CA
:103E9000DFFF20600028F4D100239846F1E7404678
:103EA00080BCB846F0BD0000124A936F9B0815D243
:103EB0009066D166002905D0FFE7FFE7FFE7516F65
:103EC000106F704704B580210906C21751400028C1
:103ED00000D0C84341F0F4F9002104BDF0B5146EE0
:103EE000556E576F166FFFF7E3FF146655665767F9
:103EF0001667F0BD000000D0114A936F9B0813D2E3
:103F000010665166002905D0FFE7FFE7FFE7516F14
:103F1000106F704704B5002801D00020C04341F065
:103F2000CFF9002104BDC046F0B5146E556E576F31
:103F3000166FFFF7E5FF1466556657671667F0BD05
:103F4000000000D094464A4A926F9208624601D21D
:103F500028E0C046F0B5464E346E756E776F366F0A
:103F600000F020F89446424A146655665767166773
:103F70006246F0BD94463E4A926F9208624601D274
:103F800054E0C046F0B53A4E346E756E776F366FBA
:103F900000F04CF89446364A146655665767166723
:103FA0006246F0BD002B24DB11D000293EDA00B5BB
:103FB000C943404200D1013100F038F8C9434042C2
:103FC00000D10131DB43524200D1013300BD002A50
:103FD000EBD1002801D1002905D00020C90FC90765
:103FE00001D1C043410800B541F042F9002200234D
:103FF00000BD00B500290ADBDB43524200D101338A
:1040000000F014F8C943404200D1013100BDC9435A
:10401000404200D10131DB43524200D1013300F074
:1040200005F8DB43524200D1013300BD002923D102
:10403000002B18D1002A0CD0BC460D4F38667A668A
:1040400000210023FFE7FFE7FFE77A6F386F67463D
:104050007047002801D00748010000B541F008F979
:104060000022002300BD02000B0000200021704749
:10407000000000D0FFFFFFFF002B00D0BFE0130CBB
:1040800028D1002AE7D080B4114F39667A66FFE75D
:10409000FFE730B4040C7B6F396F1B0423433B668E
:1040A0007A66FFE7FFE7FFE7C04684B27B6F3D6FAC
:1040B0001B0423433B667A66FFE7FFE7C046002305
:1040C0002C042D0C7A6F386F00196941B0BC704711
:1040D000000000D0F0B594460025140E01D1120264
:1040E0000835140F01D112010435940F01D192004B
:1040F0000235D40F01D152000135D40B0134254FC4
:104100007C66254C3C660E0C93B2FFE7FFE7FFE7A9
:104110003C6F6643360C7703BE467343DF0B5B048C
:10412000C01AB941130C7343DB18C91ACE08664391
:10413000360CB64493B273431F0F1B01C01AB9412A
:10414000130C73431F0B1B05C01AB941860D8F0258
:104150003E436643360C092D24DB520A7243801A13
:104160007703460A6643360C16235B1BDE40DF40AE
:10417000BF1964466643821B70460435063301004E
:10418000D940A840C01900D30131A24206D2002371
:10419000F0BD0000000000D0FFFFFFFF121B013048
:1041A000F3D3F1E709277F1BFE406446A2B27243B6
:1041B000801A00D20139220C7243130C1204821AA5
:1041C00099410B007046043513370100F940A840AF
:1041D000801900D30131002B02D1A2420AD2F0BDD6
:1041E000013000D30131121BFAD2013BF8D1A242B7
:1041F00000D2F0BD013000D30131121BF7E7F0B55A
:104200001C0C00D080E00CB400251C0A04D11B0259
:10421000160E3343120208351C0B04D11B01160F76
:104220003343120104359C0B04D19B00960F33439A
:1042300092000235DC0B02D192185B4101351C0063
:10424000971864410134464F7C66464C3C660E0C20
:10425000FFE7FFE7FFE7C0463C6F6643360C770396
:10426000BE4697B27743C01B00D20139C01B00D2B3
:1042700001399FB27743C91BC91B170C77437E04D2
:10428000FF0B801BB941CE086643360C0C2D33DB87
:10429000B644120B1F053A431B0B97B27743C01B62
:1042A00000D201399FB27743C91B170C77433E04F4
:1042B0003F0C801BB941860D8F023E436643292780
:1042C0007F1BFE400C3D7746AF40BF1930BCA2B209
:1042D000ABB272437343801A9941220C7243130CA0
:1042E0001204801A994102000B000137001BA941FA
:1042F000F9D2781E0021F0BD0C277F1BFE407746C7
:104300007F0BAF40FF19E0E700245D1C07D0144F7E
:104310007D663966FFE7FFE7FFE7FFE73C6F95B291
:104320009EB265436643401BB141150C1E0C6543AC
:10433000664336042F0C3E432D04401BB141994285
:1043400004D202000B0020000021F0BD01D19042F8
:10435000F7D3801A994101349942F2D3F6E700006D
:10436000000000D0FFFFFFFF48404140484018B424
:10437000134B5B68019308BD18B4114B1B68019384
:1043800008BD94460F4A926F920805D2624618B44F
:104390000B4BDB68019308BD0A4AF0B5146E556EED
:1043A000576F166F6246FFF7F2FF064A14665566AE
:1043B00057671667F0BD18B4014B9B68019308BDA1
:1043C000C4350020000000D0FFB5504042405040AE
:1043D00059404B40594000E0FFB5154F4C00640D6B
:1043E00003D0BC4204D10C0314D80020090D0905E8
:1043F0005C00640D03D0BC4204D11C030AD8002227
:104400001B0D1B0501264B4009D44B4003D58B42A5
:1044100000D18242FFBD9942FCD19042FFBD0B43C7
:10442000DB1803431343F5D0C9434918FFBD00000F
:10443000FF07000000B5FFF7CFFF01D0002000BD4F
:10444000012000BD00B5FFF7C7FF804100BDC04699
:1044500000B5FFF7C1FF01D9002000BD012000BD5C
:1044600000B5FFF7B1FF01D9002000BD012000BD5C
:1044700000B5FFF7A9FF804100BD012040054A00BB
:10448000121804D85A00121801D8002070470120D1
:1044900070470020704700000021002805D17047B8
:1044A000C1174840401AFAD0C90713B5064B1B681C
:1044B00098470CBC441CA2401005120B0349091B71
:1044C00009051943114310BDC43600201F04000024
:1044D00010B54C00620D8023D218DB00D21A5B05A8
:1044E0007E2A10DD9E3A13DACC17090349081943D6
:1044F0005242D140640001341532202A05DAD040FE
:104500000843604310BD002010BD0846604310BD45
:10451000C80FC018013810BD18B4024B5B6A019374
:1045200008BD0000C435002018B4024BDB6D0193B8
:1045300008BD0000C4350020C94211D300B54900B0
:104540004908002200F014F8002904D40022404257
:104550008A41114600BD80210906002000BD0000EF
:1045600018B4024BDB6E019308BD0000C435002077
:1045700018B4024B9B6F019308BD0000C4350020A6
:1045800018B4024BDB6F019308BD0000C435002056
:1045900010B50148FEF776FB6066041070B5132372
:1045A0001C78012C14D0012C14DC022C02DC1F4AD4
:1045B0001F4B9A641F48FFF74BFC1F4B186070BDE0
:1045C00099001E481A4A885001331F2BF8D9EAE790
:1045D0000023FAE71A48FFF743FC05001948FFF7E4
:1045E0003FFC023803789B007F2B19DD80222900D5
:1045F0000F4800F031F9022CD7D1134B1A88B5239C
:104600001B029A4209D1114B1A88114B9A4204D1CC
:10461000104B1A88104B9A42C7D00020FEF732FB8D
:104620000E4B0F4A32210F48FEF764FA694600101C
:10463000C43500204C330000C436002091450010E2
:10464000534400005346000054380000D83800009E
:10465000494600009C380000594600007866041066
:1046600028670410D866041007B56046002800D1FA
:1046700000BE01880A0A0230DF2AFAD1C9B28208D4
:1046800004D3028840880004104300E00068024A16
:104690005050039007BD0000C435002051434343F0
:1046A000C9188C46110C83B24B4310B4040C6143FF
:1046B00092B280B2504362431C041B0C001910BC20
:1046C00059411304120CC018514161447047000055
:1046D00007B548404140484001E0C04607B54200A8
:1046E000120E03D0FF2A03D1420218D8C00DC00514
:1046F0004A00120E03D0FF2A03D14A020FD8C90D77
:10470000C9050122414005D4414001D5814207BD80
:10471000884207BD0143491801D0C043001807BDB6
:1047200000B5FFF7DBFF01D0002000BD012000BD78
:1047300000B5FFF7D3FF01D9002000BD012000BD67
:1047400001231B064200D21804D84A00D21801D80F
:10475000002070470120704710B50148FEF792FA1B
:104760003896041070B513231E781848FFF778FBAD
:104770000500012E11D0012E09DDAB1E1B789B0018
:104780007F2B1DDD80222900114800F065F81148BB
:10479000FFF75EFB104B186070BD542201000C48FF
:1047A00000F05AF8002300E001331F2BE3D89A00F1
:1047B000074C1259002AF7D19A0008481051F3E724
:1047C000074B084A42210848FEF794F95346000077
:1047D000C83600204C330000C43600205947001072
:1047E0003C670410BC6704107067041010B5040027
:1047F00033F08AFA002804D00419034B9C4200D8F5
:1048000010BD0248FEF73EFA00000420D0670410F5
:1048100010B50C0033F0F2FE002804D00419034B4D
:104820009C4200D810BD0248FEF72CFA000004207C
:10483000D067041010B533F071FA10BD014804219F
:10484000014B184710120020713E0010014B1B68ED
:104850001847000010120020014B5B681847000049
:104860001012002010B5FFF7C1FF10BD10B5FFF703
:10487000BDFF10BD10B5FFF7DDFF10BD10B5FFF790
:10488000D9FF10BD10B5FFF7D5FF10BD10B503005F
:10489000080011001B68984710BD0000F8B507001C
:1048A0000D001600437D002B02D0002400200CE0F8
:1048B00003681100280098472DE03B7D10E002219D
:1048C00015483B689847601C0134B44214DA002C48
:1048D000F3DD2B19013B1B780D3B5A425341DBB2F0
:1048E0002A5D0A2AF0D1002BEED1A042E7DA211A84
:1048F00028183B689847E2E7B04203DA311A2818D3
:104900003B689847002E06DDAD19013D2B780D3B25
:104910005A4253413B75F8BD5868041070B5050004
:104920000368002B16D00C4B1C6805E0290004C955
:104930002000FFF7B3FF2469002C09D02368002B67
:10494000F9D0064B1B68002BF0D0A342F3D1EDE762
:1049500000232B6070BDC0469C350020A43500208C
:1049600070B505000C000B68802B05D021684B1C2E
:1049700023606418257170BD0800FFF7CFFFF5E7CD
:10498000F0B583B007000E000092019328E0A36801
:10499000002B04D0310038009847002827DC246918
:1049A000002C06D0134B1D68002DF0D0A542F6D187
:1049B000EDE70099019A104B5B6A9A4209D80E48BC
:1049C000806A88420FD29A4201D0012302E000237C
:1049D00000E00023002B08D101200021FDF708FB97
:1049E000064B1C68DCE70123F4E70120404203B0DA
:1049F000F0BDC046A4350020004005409C35002095
:104A000010B5FDF7D5FA02000B1E0BDB0D48002197
:104A100012184B41002B0BDB002B0DDB0A4840F03A
:104A20006FFC10BD094B0A4A3F210A48FEF762F8A5
:104A300001225242084BEFE7044B054A3F2105484B
:104A4000FEF758F840420F00F01C0020B85B04103D
:104A500040680410D45B0410FFFFFF7F10B50248CC
:104A600040F0FEFB10BDC046F01C0020F0B5CE4665
:104A7000474680B583B006000D0090461C00FFF746
:104A8000BFFF81466B1C05D0002C08D0194F1A4B74
:104A90001C6807E0300035F0A3F80500F4E7174F75
:104AA000F5E72469002C17D02368002BF9D0144BAC
:104AB0001B68002B01D0A342F3D12A003100200053
:104AC000B8474346002BECD06B46D91D0A230B7028
:104AD00001222000B847E4E74B46002B07D16B1EAC
:104AE0009D41E8B203B0C0BCB946B046F0BDFFF787
:104AF000B5FFF4E78D4800109C3500209D4800105C
:104B0000A435002010B5030008001100002B05D1CA
:104B1000044B1A685B68FFF733FF10BD0120404269
:104B2000FBE7C046C85F041010B50300080014007E
:104B3000013B012B06D8002300222100FFF796FF3E
:104B4000200010BD01204042FBE701204042704799
:104B5000012040427047012040427047030000207E
:104B600002229A4240417047094A01E010331A007C
:104B70001368002B08D08342F8D1002907D10369BC
:104B800013600023036102E0002900D01060704729
:104B90009C35002010B5064B1C6801E0984724693D
:104BA000002C03D06368002BF8D1F8E710BDC04695
:104BB0009C35002070B5050035F012F80400002384
:104BC000012201002800FFF751FFFFF7E3FF20005B
:104BD00070BD000070B5A2B004000E00FFF710FF1A
:104BE0000500002301933300220001A90848FFF7C4
:104BF00017F9040001A8FFF791FEFFF7CBFF002D86
:104C000002D1200022B070BDFFF728FFF9E7C046AF
:104C1000614900100FB400B583B004A901C9019126
:104C2000FFF7D8FF03B008BC04B0184710B500F078
:104C3000F9F8012010BD0000F0B583B005000E00AA
:104C400000240FE06B46D91D0D230B7000200028B7
:104C500016D193699B06FCD40B78136001300131A7
:104C6000F5E70134B44219DA0D4B1A682F5D0D4B8C
:104C7000D31859424B415B000B495B5EBB42E1D00C
:104C80006B46D91D0F7000200028EAD193699B065E
:104C9000FCD40B78136001300131F5E703B0F0BDAF
:104CA000E03700200080FCBFDC370020F0B583B087
:104CB00006000F00002504E06B4607331B782B70BD
:104CC0002500BD4215DA174B1A689369102421009C
:104CD00019401C420DD16C1C75196B46D81D00295A
:104CE000EAD19369DB06FCD413680370013101300B
:104CF000F5E70D4B1B68002B0CD00A4B1A685023AC
:104D0000936311003431536B38221A4080235B01C6
:104D10000B431A60002D02D0280003B0F0BD033D04
:104D2000FAE7C046E03700202C35002010B5064BCE
:104D30001B68002B06D0054A126800219163044AC3
:104D40001068984710BDC0462C350020E037002081
:104D50003035002070B504000E001C4B1B681C4A47
:104D600098184242504114300500002C03D0194AD3
:104D70001268002A06D0002C19D0164B1C60164B66
:104D80001E6070BD1549FCF769F901212800FCF788
:104D900055F90E4B1A685023936311003431536B4D
:104DA00038221A4080235B010B431A60E5E7094A69
:104DB0001268002AE1D000229A6300212800FCF743
:104DC0003DF906492800FCF773F9D6E7E0370020E3
:104DD0000080FCBF2C350020303500202D4D001008
:104DE00070B50D001C000D4B1860002A0BDA002C6A
:104DF0000EDA0A4B18682900FDF75CFC012108480F
:104E0000FFF7B2FE70BD02211000FCF727F8EEE7B5
:104E100002212000FCF722F8EBE7C046E037002033
:104E20002012002010B5064B1B78064B1B78E121A1
:104E30000123002249020448FFF7D2FF10BDC046FB
:104E4000C0290510C429051000400340F0B5DE4616
:104E500057464E464546E0B585B0060010001C009A
:104E600002930EAB1A7803920F9D109F33680022B5
:104E7000DA663368596033680132DA66A246002385
:104E800098469B4600242BE03279002A31D001223B
:104E90002FE00399002901D000212EE001212CE010
:104EA0003800A84703000443E4B2002B06D132685F
:104EB000526BD20602D4002DF2D1F6E7002B09D1B5
:104EC0003268802151588B4600291FD1002C2FD1E8
:104ED000C1451ED0002C33D101229446E0440198F4
:104EE000D0452DDA029A013A91464246002ACBD0AB
:104EF00000229202C145CCD0002149020A43411C44
:104F000001910078316802430A61D4E7526D0124AF
:104F10000EE0039A002ADDD10AE03800A84703001A
:104F20000443E4B2002B06D13268526B920502D4DE
:104F3000002DF2D1F6E7002BCCD13268126EC9E712
:104F4000002C09D0002B15D15B46002B16D0DB07B7
:104F500018D45B461B0709D5039B3371404605B047
:104F6000F0BCBB46B246A946A046F0BD02235B4258
:104F70009846F1E701235B429846EDE702235B4246
:104F80009846E9E702235B429846E5E7F0B5D64646
:104F90004F464646C0B505000C000520FDF7CCFC89
:104FA0000600600880192100FEF7A6FF07004300F5
:104FB0009946814405214846FEF79EFF80463B1AEC
:104FC0009A46284B9C4224D8700080192649FEF747
:104FD00093FF441C4346023BA34221D32B6800228B
:104FE000DA6629680A680423534006221A4080239F
:104FF0005B010B431A602B685246DA612B6842460C
:105000001A624B464F2B11D950214846FEF774FFC8
:105010000DE0700080191549FEF76EFF441CD9E7BA
:10502000134B144A5F211448FDF764FD0120A023AF
:105030002A68D0502A6811007C31D06F4440240483
:10504000240C80235B010B431C602B680122DA6671
:1050500039003000FEF750FFE0BCBA46B146A84622
:10506000F0BDC0463F420F008096980040787D0119
:105070009C68041000690410BC68041010B5114B42
:1050800098421CD01022104B1A60104B1A60104B23
:105090009B6814009C43231EF9D104710268D466F6
:1050A00002686624FF3414600268D3630268936365
:1050B000883303220468E250FFF768FF10BD08221E
:1050C000E1E7C0463812002000E0004000F0004058
:1050D00000C0004030B585B008AC257800240294AB
:1050E00001940095FFF7B2FE05B030BD1B2210B54C
:1050F0000249022037F0A8FA28F01CFD14690410B8
:10510000F0B5DE4657464E4645460122E0B5DF4F34
:1051100000243800DE4B83B01A70DE4B7C6098466A
:105120001B681C309D68DC4BBC603B60FC603C61D4
:105130007C61BC619B4601F0E7F8D84BD84E9A469B
:105140003B6001235B4299467B6243461B683D629C
:105150005D6830005B4674603360B460F460346155
:105160007461B4611C3001F0CFF8534633604B4694
:10517000736243463562CB4D5A4628001B682A604D
:10518000DB686C60AC60EC602C616C61AC611C3005
:10519000019301F0B9F8019B52462B624B466B62BA
:1051A000C14B2A609946180012F04EFE4B467822F9
:1051B0001C67043B9C5208329C5004329C500432C1
:1051C0009C50DC67B94C39002200143248461C6000
:1051D0005A6012F0BFFDB64F380012F035FE3B00AA
:1051E00000227C21083B5A5204315A5004315A5053
:1051F00004315A5004315A50AE4938001960143104
:1052000099603A6731005A6012F0A4FDAA4E30004E
:1052100012F01AFE00227821331F5A5208315A50D8
:1052200004315A5004315A503267B26722001432A6
:10523000290030001C60326012F08CFD9F4E30005F
:1052400012F002FE00227821331F5A5208315A50C0
:1052500004315A501C60043114345A503000290073
:105260003267B267346012F075FD80229449954B25
:1052700092019967944B954F1869596702431A61D7
:105280004346002438001B687C609D68904BBC60DE
:105290003B60FC603C617C61BC611C309B4601F062
:1052A00033F88C4B8C4E9A463B6001235B42994607
:1052B0007B6243461B683D625D6830005B467460FC
:1052C0003360B460F46034617461B4611C3001F027
:1052D0001BF8534633604B46736243461B68356286
:1052E000DB687E4D984628005B466C602B60AC60A6
:1052F000EC602C616C61AC611C3001F005F8534628
:105300002B6043462B624B466B62754B98461800E8
:1053100012F09AFD43467C221C675C67043B9C5458
:1053200004329C5004329C5004329C5004329C50F5
:105330006C4C39002200143240461C605A6012F056
:105340006DFD694F380012F07FFD3B000022802187
:10535000083B5A5404315A5004315A5004315A50BF
:1053600004315A50614938001960143199603A6724
:1053700031007A675A6012F051FD5D4E300012F034
:1053800063FD00227C21331F5A5404315A500431EA
:105390005A5004315A5004315A5032677267220011
:1053A0001432290030001C60326012F037FD514E7B
:1053B000300012F049FD00227C21331F5A54043181
:1053C0005A5004315A5004315A501C60043114347C
:1053D0005A503000290032677267346012F01EFDA7
:1053E00080224549454B92019967454B1869596799
:1053F00002431A61434A13680133136003B0F0BCDF
:10540000BB46B246A946A046F0BD2D4B3E4A484693
:105410005A6012F057FD27F0E1FD3C4B3C4A30004A
:105420005A6012F04FFD27F0D9FD354B384A300055
:105430005A6012F047FD27F0D1FD304B344A380056
:105440009A6012F03FFD27F0C9FD2B4B304A4046D1
:105450005A6012F037FD27F0C1FD2E4B2A4A30006A
:105460005A6012F02FFD27F0B9FD174B264A300085
:105470005A6012F027FD27F0B1FD124B224A380086
:105480009A6012F01FFD27F0A9FDC046F02D002004
:1054900048120020DC12002050960410D88B041013
:1054A000A02D0020C82D0020E031002028950410F8
:1054B0003C300020A48D0410C8300020543100205E
:1054C000DC31002034300020C4300020682E002061
:1054D00090960410188C0410182E0020402E0020E6
:1054E000203400205895041070320020D48D041010
:1054F00000330020903300201C340020683200204C
:10550000FC32002000300020F48C04108C3300208A
:10551000048D041050310020064A10B513680400B1
:10552000591C1160002B01D0200010BDFFF7E8FDD1
:10553000FAE7C04600300020104A10B51368040096
:10554000591E1160022B01D0200010BD0C481CF028
:1055500093FC0C481CF090FC0B481CF08DFC0B4895
:105560001CF0C6FC0A481CF0C3FC0A481CF0C0FC36
:10557000EAE727F0CFFE27F007FFE5E7003000203D
:10558000DC310020C4300020503100201C340020C9
:10559000FC3200208C3300207047C04610B5040058
:1055A000FFF768F9200010BD044A0B681268036019
:1055B000934202D01A6801321A607047802F00208F
:1055C0000160704710B5064C2068002800D010BD5F
:1055D00020000022034929F001F92068F7E7C046BE
:1055E000882F00203069041000487047306904108B
:1055F000416870B50500002916D08368002B10D0D3
:105600000024354EA2005058002805D043685A1E89
:105610004260012B36D0AB680134A342F2D8002996
:1056200002D00800FFF72AF9E968002916D0AB6814
:10563000002B10D00024284EA2005058002805D07E
:1056400043685A1E4260012B24D0AB680134A34248
:10565000F2D8002902D00800FFF710F92B690024C6
:10566000002B0DD01859002802D0FFF707F92B693D
:105670000434182CF6D1002B02D01800FFF7FEF8E6
:10568000280070BD03685B68B3420BD1FFF7F2F8E6
:105690006968C0E703685B68B34206D1FFF7EAF8C0
:1056A000E968D2E798476968B5E79847E968CCE7C1
:1056B00027F030FE27F068FE6968ACE727F02AFE85
:1056C00027F062FEE968C0E74B1C02D127F0A2FD7B
:1056D000FAE727F083FCC0469D5500100A4B70B5D1
:1056E0001B68056804009D4204D02B685A1E2A607E
:1056F000012B01D0200070BD2800FFF779FF2800A2
:10570000FFF7B8F8F6E7C046802F00200E4A0B6876
:10571000126870B504000D00934202D0196801317F
:1057200019602668B24204D03268511E3160012AE5
:1057300002D02000236070BD3000FFF759FF300019
:10574000FFF798F82B68F4E7802F0020F0B54E465D
:10575000DE4657464546E0B583B0161E009000D1A0
:10576000E6E00C68002C04D1A84B1A68541C1C609D
:105770000C60009A671E9368013BBB425FD2E31C3A
:105780009A4653689B46A24B9A4500D8DCE0012319
:105790005B4299464846FFF769F8009B80469B6844
:1057A0009C46002B0AD0009B596863469A00002350
:1057B0004546C858E85004339342F9D1E24509D927
:1057C000534662469A1A634698000021920040446C
:1057D000FFF73CF8009D4846EB680193FFF746F859
:1057E000AB6881469C46002B0AD0009BD968634673
:1057F0009A0000234D46C858E85004339342F9D12B
:10580000D44509D2534662469A1A6346980000214D
:1058100092004844FFF71AF85346009A93604346B3
:1058200053604B46D3605B46002B02D05846FFF7CF
:1058300025F8019B002B02D01800FFF71FF87368B2
:10584000BF0001337360009B5B689C4667443B6804
:10585000B9469846002B45D06E4A116800293AD0C7
:105860006A480EE057683B68002B03D10368013398
:1058700003603B609C4200D173E0916808320029CC
:1058800029D00B68002B03D10368013303600B6040
:105890009C42E7D151680B68002B04D15B4A136826
:1058A000013313600B60013B9C0064442368002BB0
:1058B00011D030000DF08CFA43688046013343600C
:1058C000206843685A1E4260012B6FD04346236014
:1058D0004B461B689846434641465B685A1E4A60E1
:1058E000012B35D04B461E60009B9A68002A1FD0C2
:1058F000D968494B00240027984605E01F60009BAB
:105900009A680134A24213D9A6008B19186800289E
:10591000F7D04268551E4560012AEFD103685B68E5
:1059200043450CD1FEF7A6FF009BD9688B19E5E72C
:1059300003B0F0BCBB46B246A946A046F0BD9847AE
:10594000009BD9688B19D9E753469B00994621E7FC
:105950000B68314A5B684046934225D1FEF78AFFC7
:10596000C0E70B68002B04D1284A13680133136089
:105970000B60013B9C0064442368002BABD03000DB
:1059800004F0C8FC436880460133436020684368E4
:105990005A1E4260012B99D103681F4A5B689342EB
:1059A0000BD1FEF767FF91E798479BE703681A4A18
:1059B0005B689342F5D0984788E7984786E727F0D9
:1059C000A9FC4046FEF75AFF28F02EF927F0A2FC6A
:1059D00027F0DAFC86E727F09DFC27F0D5FCAFE73F
:1059E00027F098FC27F0D0FC70E727F093FC27F015
:1059F000CBFC6BE727F0C8FC27F0F0FA4B1CFBD17F
:105A000027F008FCFAE7F9E7F8E7C046842F002002
:105A1000FEFFFF1F506904109D550010F8B53A4F66
:105A200006003B780D001400BFF35B8FDB073FD50A
:105A3000364A1168002930D0354F0EE050680368AF
:105A4000002B03D13B6801333B600360013B9C4268
:105A500037D09168083200291FD00B68002B03D182
:105A60003B6801333B600B60013B9C42E6D15268CE
:105A70001368002B40D0F268A40014192168013B80
:105A800000292ED0002D07D02B68224A5B68280001
:105A9000934237D1FEF7EEFEF8BDF268A400141968
:105AA0002368002BEED16B6801336B602560F3E750
:105AB000380028F0F1F80028BAD0380028F008F9AA
:105AC000B6E70A68002A04D1114B1A6801321A603D
:105AD0000A602300541EF268A400141921680029EA
